{
  "_format": "hh-sol-artifact-1",
  "contractName": "Trial",
  "sourceName": "contracts/Trial.sol",
  "abi": [
    {
      "inputs": [],
      "stateMutability": "nonpayable",
      "type": "constructor"
    },
    {
      "inputs": [],
      "name": "InsufficientDepositBalance",
      "type": "error"
    },
    {
      "inputs": [
        {
          "internalType": "uint256",
          "name": "depositAmount",
          "type": "uint256"
        }
      ],
      "name": "checkEther",
      "outputs": [],
      "stateMutability": "payable",
      "type": "function"
    },
    {
      "inputs": [],
      "name": "child",
      "outputs": [
        {
          "internalType": "contract ChildContract",
          "name": "",
          "type": "address"
        }
      ],
      "stateMutability": "view",
      "type": "function"
    },
    {
      "inputs": [],
      "name": "convertIntToUint",
      "outputs": [
        {
          "internalType": "uint256",
          "name": "a",
          "type": "uint256"
        },
        {
          "internalType": "uint256",
          "name": "b",
          "type": "uint256"
        }
      ],
      "stateMutability": "pure",
      "type": "function"
    },
    {
      "inputs": [],
      "name": "deposit",
      "outputs": [],
      "stateMutability": "payable",
      "type": "function"
    },
    {
      "inputs": [],
      "name": "funcA",
      "outputs": [],
      "stateMutability": "pure",
      "type": "function"
    },
    {
      "inputs": [],
      "name": "funcB",
      "outputs": [],
      "stateMutability": "payable",
      "type": "function"
    },
    {
      "inputs": [],
      "name": "getContractBalance",
      "outputs": [
        {
          "internalType": "uint256",
          "name": "",
          "type": "uint256"
        }
      ],
      "stateMutability": "view",
      "type": "function"
    }
  ],
  "bytecode": "0x60a060405234801561001057600080fd5b5060405161001d90610072565b604051809103906000f080158015610039573d6000803e3d6000fd5b5073ffffffffffffffffffffffffffffffffffffffff1660808173ffffffffffffffffffffffffffffffffffffffff168152505061007e565b605c806105e283390190565b608051610549610099600039600061014001526105496000f3fe6080604052600436106100705760003560e01c806384c5a5ef1161004e57806384c5a5ef146100e2578063b102e584146100ec578063d0e30db014610118578063d8f5e2671461012257610070565b8063237b5e96146100755780636f9fb98a146100a0578063706f4c9e146100cb575b600080fd5b34801561008157600080fd5b5061008a61013e565b604051610097919061037a565b60405180910390f35b3480156100ac57600080fd5b506100b5610162565b6040516100c291906103ae565b60405180910390f35b3480156100d757600080fd5b506100e061016a565b005b6100ea61019c565b005b3480156100f857600080fd5b506101016101a6565b60405161010f9291906103c9565b60405180910390f35b6101206101e0565b005b61013c60048036038101906101379190610423565b61024d565b005b7f000000000000000000000000000000000000000000000000000000000000000081565b600047905090565b6040517f2ca192fe00000000000000000000000000000000000000000000000000000000815260040160405180910390fd5b6101a461016a565b565b60008060007fffffffffffffffffffffffffffffffffffffffffffffffffffffffffffffffff905060006001905081935080925050509091565b600034141561021b576040517f2ca192fe00000000000000000000000000000000000000000000000000000000815260040160405180910390fd5b6040517f2ca192fe00000000000000000000000000000000000000000000000000000000815260040160405180910390fd5b34811461028f576040517f08c379a0000000000000000000000000000000000000000000000000000000008152600401610286906104ad565b60405180910390fd5b3373ffffffffffffffffffffffffffffffffffffffff16346040516102b3906104fe565b60006040518083038185875af1925050503d80600081146102f0576040519150601f19603f3d011682016040523d82523d6000602084013e6102f5565b606091505b50505050565b600073ffffffffffffffffffffffffffffffffffffffff82169050919050565b6000819050919050565b600061034061033b610336846102fb565b61031b565b6102fb565b9050919050565b600061035282610325565b9050919050565b600061036482610347565b9050919050565b61037481610359565b82525050565b600060208201905061038f600083018461036b565b92915050565b6000819050919050565b6103a881610395565b82525050565b60006020820190506103c3600083018461039f565b92915050565b60006040820190506103de600083018561039f565b6103eb602083018461039f565b9392505050565b600080fd5b61040081610395565b811461040b57600080fd5b50565b60008135905061041d816103f7565b92915050565b600060208284031215610439576104386103f2565b5b60006104478482850161040e565b91505092915050565b600082825260208201905092915050565b7f4e6f7420657175616c0000000000000000000000000000000000000000000000600082015250565b6000610497600983610450565b91506104a282610461565b602082019050919050565b600060208201905081810360008301526104c68161048a565b9050919050565b600081905092915050565b50565b60006104e86000836104cd565b91506104f3826104d8565b600082019050919050565b6000610509826104db565b915081905091905056fea2646970667358221220be1f1db72113c3fd9245495fba63c725625a3f026dd966114e2b96e20d0ee95264736f6c634300080900336080604052348015600f57600080fd5b50603f80601d6000396000f3fe6080604052600080fdfea2646970667358221220a5fb5a6b6d45e19a93928bb7f3f0696d62eb0276e45d43ee4d3c572078ade6e964736f6c63430008090033",
  "linkReferences": {},
  "deployedLinkReferences": {}
}