{
  "contracts/Trial.sol": {
    "Trial": {
      "abi": [
        {
          "inputs": [],
          "name": "InsufficientDepositBalance",
          "type": "error"
        },
        {
          "inputs": [],
          "name": "convertIntToUint",
          "outputs": [
            {
              "internalType": "uint256",
              "name": "a",
              "type": "uint256"
            },
            {
              "internalType": "uint256",
              "name": "b",
              "type": "uint256"
            }
          ],
          "stateMutability": "pure",
          "type": "function"
        },
        {
          "inputs": [],
          "name": "deposit",
          "outputs": [],
          "stateMutability": "payable",
          "type": "function"
        },
        {
          "inputs": [],
          "name": "funcA",
          "outputs": [],
          "stateMutability": "pure",
          "type": "function"
        },
        {
          "inputs": [],
          "name": "funcB",
          "outputs": [],
          "stateMutability": "payable",
          "type": "function"
        },
        {
          "inputs": [],
          "name": "getContractBalance",
          "outputs": [
            {
              "internalType": "uint256",
              "name": "",
              "type": "uint256"
            }
          ],
          "stateMutability": "view",
          "type": "function"
        }
      ],
      "evm": {
        "bytecode": {
          "linkReferences": {},
          "object": "608060405234801561001057600080fd5b5061024f806100206000396000f3fe60806040526004361061004a5760003560e01c80636f9fb98a1461004f578063706f4c9e1461007a57806384c5a5ef14610091578063b102e5841461009b578063d0e30db0146100c7575b600080fd5b34801561005b57600080fd5b506100646100d1565b60405161007191906101d5565b60405180910390f35b34801561008657600080fd5b5061008f6100d9565b005b61009961010b565b005b3480156100a757600080fd5b506100b0610115565b6040516100be9291906101f0565b60405180910390f35b6100cf61014f565b005b600047905090565b6040517f2ca192fe00000000000000000000000000000000000000000000000000000000815260040160405180910390fd5b6101136100d9565b565b60008060007fffffffffffffffffffffffffffffffffffffffffffffffffffffffffffffffff905060006001905081935080925050509091565b600034141561018a576040517f2ca192fe00000000000000000000000000000000000000000000000000000000815260040160405180910390fd5b6040517f2ca192fe00000000000000000000000000000000000000000000000000000000815260040160405180910390fd5b6000819050919050565b6101cf816101bc565b82525050565b60006020820190506101ea60008301846101c6565b92915050565b600060408201905061020560008301856101c6565b61021260208301846101c6565b939250505056fea26469706673582212209a0456742b8f4a6a0f5b2530bae844a4aef43a880cd838065cabce59cba389e964736f6c63430008090033",
          "opcodes": "PUSH1 0x80 PUSH1 0x40 MSTORE CALLVALUE DUP1 ISZERO PUSH2 0x10 JUMPI PUSH1 0x0 DUP1 REVERT JUMPDEST POP PUSH2 0x24F DUP1 PUSH2 0x20 PUSH1 0x0 CODECOPY PUSH1 0x0 RETURN INVALID PUSH1 0x80 PUSH1 0x40 MSTORE PUSH1 0x4 CALLDATASIZE LT PUSH2 0x4A JUMPI PUSH1 0x0 CALLDATALOAD PUSH1 0xE0 SHR DUP1 PUSH4 0x6F9FB98A EQ PUSH2 0x4F JUMPI DUP1 PUSH4 0x706F4C9E EQ PUSH2 0x7A JUMPI DUP1 PUSH4 0x84C5A5EF EQ PUSH2 0x91 JUMPI DUP1 PUSH4 0xB102E584 EQ PUSH2 0x9B JUMPI DUP1 PUSH4 0xD0E30DB0 EQ PUSH2 0xC7 JUMPI JUMPDEST PUSH1 0x0 DUP1 REVERT JUMPDEST CALLVALUE DUP1 ISZERO PUSH2 0x5B JUMPI PUSH1 0x0 DUP1 REVERT JUMPDEST POP PUSH2 0x64 PUSH2 0xD1 JUMP JUMPDEST PUSH1 0x40 MLOAD PUSH2 0x71 SWAP2 SWAP1 PUSH2 0x1D5 JUMP JUMPDEST PUSH1 0x40 MLOAD DUP1 SWAP2 SUB SWAP1 RETURN JUMPDEST CALLVALUE DUP1 ISZERO PUSH2 0x86 JUMPI PUSH1 0x0 DUP1 REVERT JUMPDEST POP PUSH2 0x8F PUSH2 0xD9 JUMP JUMPDEST STOP JUMPDEST PUSH2 0x99 PUSH2 0x10B JUMP JUMPDEST STOP JUMPDEST CALLVALUE DUP1 ISZERO PUSH2 0xA7 JUMPI PUSH1 0x0 DUP1 REVERT JUMPDEST POP PUSH2 0xB0 PUSH2 0x115 JUMP JUMPDEST PUSH1 0x40 MLOAD PUSH2 0xBE SWAP3 SWAP2 SWAP1 PUSH2 0x1F0 JUMP JUMPDEST PUSH1 0x40 MLOAD DUP1 SWAP2 SUB SWAP1 RETURN JUMPDEST PUSH2 0xCF PUSH2 0x14F JUMP JUMPDEST STOP JUMPDEST PUSH1 0x0 SELFBALANCE SWAP1 POP SWAP1 JUMP JUMPDEST PUSH1 0x40 MLOAD PUSH32 0x2CA192FE00000000000000000000000000000000000000000000000000000000 DUP2 MSTORE PUSH1 0x4 ADD PUSH1 0x40 MLOAD DUP1 SWAP2 SUB SWAP1 REVERT JUMPDEST PUSH2 0x113 PUSH2 0xD9 JUMP JUMPDEST JUMP JUMPDEST PUSH1 0x0 DUP1 PUSH1 0x0 PUSH32 0xFFFFFFFFFFFFFFFFFFFFFFFFFFFFFFFFFFFFFFFFFFFFFFFFFFFFFFFFFFFFFFFF SWAP1 POP PUSH1 0x0 PUSH1 0x1 SWAP1 POP DUP2 SWAP4 POP DUP1 SWAP3 POP POP POP SWAP1 SWAP2 JUMP JUMPDEST PUSH1 0x0 CALLVALUE EQ ISZERO PUSH2 0x18A JUMPI PUSH1 0x40 MLOAD PUSH32 0x2CA192FE00000000000000000000000000000000000000000000000000000000 DUP2 MSTORE PUSH1 0x4 ADD PUSH1 0x40 MLOAD DUP1 SWAP2 SUB SWAP1 REVERT JUMPDEST PUSH1 0x40 MLOAD PUSH32 0x2CA192FE00000000000000000000000000000000000000000000000000000000 DUP2 MSTORE PUSH1 0x4 ADD PUSH1 0x40 MLOAD DUP1 SWAP2 SUB SWAP1 REVERT JUMPDEST PUSH1 0x0 DUP2 SWAP1 POP SWAP2 SWAP1 POP JUMP JUMPDEST PUSH2 0x1CF DUP2 PUSH2 0x1BC JUMP JUMPDEST DUP3 MSTORE POP POP JUMP JUMPDEST PUSH1 0x0 PUSH1 0x20 DUP3 ADD SWAP1 POP PUSH2 0x1EA PUSH1 0x0 DUP4 ADD DUP5 PUSH2 0x1C6 JUMP JUMPDEST SWAP3 SWAP2 POP POP JUMP JUMPDEST PUSH1 0x0 PUSH1 0x40 DUP3 ADD SWAP1 POP PUSH2 0x205 PUSH1 0x0 DUP4 ADD DUP6 PUSH2 0x1C6 JUMP JUMPDEST PUSH2 0x212 PUSH1 0x20 DUP4 ADD DUP5 PUSH2 0x1C6 JUMP JUMPDEST SWAP4 SWAP3 POP POP POP JUMP INVALID LOG2 PUSH5 0x6970667358 0x22 SLT KECCAK256 SWAP11 DIV JUMP PUSH21 0x2B8F4A6A0F5B2530BAE844A4AEF43A880CD838065C 0xAB 0xCE MSIZE 0xCB LOG3 DUP10 0xE9 PUSH5 0x736F6C6343 STOP ADDMOD MULMOD STOP CALLER "
        },
        "methodIdentifiers": {
          "convertIntToUint()": "b102e584",
          "deposit()": "d0e30db0",
          "funcA()": "706f4c9e",
          "funcB()": "84c5a5ef",
          "getContractBalance()": "6f9fb98a"
        }
      }
    }
  }
}